:0300000002089D56
:0C089D00787FE4F6D8FD7581230208E4A2
:030B4C00DFFE22A7
:100AFF00C2B77FFA120B4CD2B77F1E120B4CA2B7A4
:040B0F00E433FF22AA
:0E0B2700C2B77F01120B4CD2B77F1E020B4CDF
:0E0B3500C2B77F0A120B4CD2B77F14020B4CD2
:020AC800AE0777
:100ACA00E4FDEDD39407748094805013EE30E00572
:0F0ADA00120B278003120B35EEC313FE0D80E3C2
:010AE90022EA
:100B1300C2B77F01120B4CD2B77F04120B4CA2B7A2
:040B2300E433FF2296
:100AA500E4FEFDEED39407748094805013120B136B
:100AB500EFC43333335480FFEDC3134FFD0E80E392
:020AC500AF057B
:010AC700220C
:070A7E00022100000123002A
:100AEA005389F0438901E4F58A758CEEC28DD2AF41
:050AFA00D2A9D28C22FC
:03000B000209FCEB
:1009FC00C0E0C0F0C083C082C0D075D000C000C0C1
:100A0C0001C002C003C004C005C006C007C28C12DE
:100A1C000B43758A00758CEEAF22AE21120929D2D8
:100A2C008CD007D006D005D004D003D002D001D092
:0C0A3C0000D0D0D082D083D0F0D0E032C7
:10099700120AEAC2AF120AFF7F19120B4C7FCC1260
:1009A7000AC87F44120AC8120AFF7F19120B4C7F2C
:1009B700CC120AC87FBE120AC8120AA58F23120AD0
:1009C700A57521008F22E522F521E523F522AE2129
:1009D700AF227C007D06120800AC06AD07AE21E50C
:1009E700227802CEC313CE13D8F92DF522EC3EF5AB
:0509F70021D2AF809E3B
:100A850014083F065B4F666D7D277F6FBF86DBCF02
:0F0A9500E6EDFDA7FFEF041D00000000011C00AF
:100A480074082DF8E6F580EF146010146016146031
:100A58001C24037020D2A4C2A58004C2A4D2A5C2BB
:100A6800A6C2A722C2A4C2A5D2A6C2A722C2A4C255
:060A7800A5C2A6D2A722D0
:10092900AB07AA06AF1CEF3395E04F704F7C037DF0
:10093900E8AF031208128F1D7C037DE8AF03AE02F6
:100949001208127E007F64CFCDCFCECCCE12081212
:10095900EF240AF51E7C007D64AF03AE0212081273
:100969007E007F0ACFCDCFCECCCE1208128F1FAE1C
:1009790002AF037C007D0A1208128D20741D251C0C
:0E098900F8E6FDAF1C120A48051C531C0322A1
:090B4300C2A4C2A5C2A6C2A722E9
:1008A900020997E493A3F8E493A34003F68001F2C5
:1008B90008DFF48029E493A3F85407240CC8C33350
:1008C900C4540F4420C8834004F456800146F6DF1F
:1008D900E4800B0102040810204080900A7EE47E27
:1008E900019360BCA3FF543F30E509541FFEE49314
:1008F900A360010ECF54C025E060A840B8E493A3DB
:10090900FAE493A3F8E493A3C8C582C8CAC583CA05
:10091900F0A3C8C582C8CAC583CADFE9DEE780BEBD
:010AA4000051
:10080000EF8DF0A4A8F0CF8CF0A428CE8DF0A42E0C
:02081000FE22C6
:10081200C2D5EC30E709B2D5E4C39DFDE49CFCEE01
:1008220030E715B2D5E4C39FFFE49EFE120848C329
:10083200E49DFDE49CFC800312084830D507C3E424
:060842009FFFE49EFE2270
:10084800BC000BBE0029EF8DF084FFADF022E4CC94
:10085800F875F008EF2FFFEE33FEEC33FCEE9DEC5D
:10086800984005FCEE9DFE0FD5F0E9E4CEFD22EDA3
:10087800F8F5F0EE8420D21CFEADF075F008EF2FED
:10088800FFED33FD4007985006D5F0F222C398FDDE
:050898000FD5F0EA227B
:00000001FF
